{
  "contractName": "Goal2021",
  "abi": [
    {
      "constant": false,
      "inputs": [
        {
          "internalType": "string",
          "name": "_goal",
          "type": "string"
        }
      ],
      "name": "setMyGoal",
      "outputs": [],
      "payable": false,
      "stateMutability": "nonpayable",
      "type": "function"
    },
    {
      "constant": false,
      "inputs": [
        {
          "internalType": "uint256",
          "name": "_num",
          "type": "uint256"
        }
      ],
      "name": "setMyLuckyNum",
      "outputs": [],
      "payable": false,
      "stateMutability": "nonpayable",
      "type": "function"
    },
    {
      "constant": true,
      "inputs": [
        {
          "internalType": "address",
          "name": "_owner",
          "type": "address"
        }
      ],
      "name": "getMyGoal",
      "outputs": [
        {
          "internalType": "string",
          "name": "",
          "type": "string"
        }
      ],
      "payable": false,
      "stateMutability": "view",
      "type": "function"
    },
    {
      "constant": true,
      "inputs": [
        {
          "internalType": "address",
          "name": "_owner",
          "type": "address"
        }
      ],
      "name": "getMyLuckyNum",
      "outputs": [
        {
          "internalType": "uint256",
          "name": "",
          "type": "uint256"
        }
      ],
      "payable": false,
      "stateMutability": "view",
      "type": "function"
    }
  ],
  "bytecode": "0x6080604052600060025534801561001557600080fd5b50610508806100256000396000f3fe608060405234801561001057600080fd5b506004361061004c5760003560e01c8063557675451461005157806356d6cec41461010e5780637491393314610166578063aa3247bb14610194575b600080fd5b6100936004803603602081101561006757600080fd5b81019080803573ffffffffffffffffffffffffffffffffffffffff16906020019092919050505061020d565b6040518080602001828103825283818151815260200191508051906020019080838360005b838110156100d35780820151818401526020810190506100b8565b50505050905090810190601f1680156101005780820380516001836020036101000a031916815260200191505b509250505060405180910390f35b6101506004803603602081101561012457600080fd5b81019080803573ffffffffffffffffffffffffffffffffffffffff1690602001909291905050506102ed565b6040518082815260200191505060405180910390f35b6101926004803603602081101561017c57600080fd5b8101908080359060200190929190505050610336565b005b61020b600480360360208110156101aa57600080fd5b81019080803590602001906401000000008111156101c757600080fd5b8201836020820111156101d957600080fd5b803590602001918460018302840111640100000000831117156101fb57600080fd5b909192939192939050505061037d565b005b60606000808373ffffffffffffffffffffffffffffffffffffffff1673ffffffffffffffffffffffffffffffffffffffff1681526020019081526020016000208054600181600116156101000203166002900480601f0160208091040260200160405190810160405280929190818152602001828054600181600116156101000203166002900480156102e15780601f106102b6576101008083540402835291602001916102e1565b820191906000526020600020905b8154815290600101906020018083116102c457829003601f168201915b50505050509050919050565b6000600160008373ffffffffffffffffffffffffffffffffffffffff1673ffffffffffffffffffffffffffffffffffffffff168152602001908152602001600020549050919050565b80600160003373ffffffffffffffffffffffffffffffffffffffff1673ffffffffffffffffffffffffffffffffffffffff1681526020019081526020016000208190555050565b60008060003373ffffffffffffffffffffffffffffffffffffffff1673ffffffffffffffffffffffffffffffffffffffff168152602001908152602001600020805460018160011615610100020316600290049050146103dc57600080fd5b81816000803373ffffffffffffffffffffffffffffffffffffffff1673ffffffffffffffffffffffffffffffffffffffff168152602001908152602001600020919061042992919061042e565b505050565b828054600181600116156101000203166002900490600052602060002090601f016020900481019282601f1061046f57803560ff191683800117855561049d565b8280016001018555821561049d579182015b8281111561049c578235825591602001919060010190610481565b5b5090506104aa91906104ae565b5090565b6104d091905b808211156104cc5760008160009055506001016104b4565b5090565b9056fea265627a7a723158206dcfb300a9b97e6737ee2e73e59ed783e14aba2503f8aaf666c3a9d6d0e3ff5b64736f6c63430005100032",
  "source": "pragma solidity >=0.5.16 <0.8.0;\r\n\r\n/// @title Goal2021\r\n/*\r\n/// @notice Allows user to store goal for 2021 which can't be changed.\r\n    Also allows user to store lucky number.\r\n*/\r\ncontract Goal2021 {\r\n    mapping(address => string) private goalsFor2021;\r\n    mapping(address => uint) private luckyNum;\r\n    uint randNonce = 0;\r\n    \r\n    modifier OwnerOf(address _address) {\r\n        require(_address == msg.sender);\r\n        _;\r\n    }\r\n    \r\n    /// @notice Set your goal one time.\r\n    /// @param _goal string which contains goal\r\n    function setMyGoal(string calldata _goal) external {\r\n        require (bytes(goalsFor2021[msg.sender]).length == 0);\r\n        goalsFor2021[msg.sender] = _goal;\r\n    }\r\n    \r\n    /// @notice Set your lucky num\r\n    function setMyLuckyNum(uint _num) external {\r\n        luckyNum[msg.sender] = _num;\r\n    }\r\n    \r\n  \r\n    /// @notice Return your goal\r\n    function getMyGoal(address _owner) external view  returns (string memory) {\r\n        return goalsFor2021[_owner];\r\n    }\r\n    \r\n    /// @notice Return your lucky number\r\n    function getMyLuckyNum(address _owner) external view  returns (uint) {\r\n        return luckyNum[_owner];\r\n    }\r\n    \r\n    \r\n}",
  "sourcePath": "E:/Philipp/Documents/Contracts/Goal2021/contracts/Goal2021.sol",
  "compiler": {
    "name": "solc",
    "version": "0.5.16+commit.9c3226ce.Emscripten.clang"
  },
  "schemaVersion": "3.3.2",
  "updatedAt": "2020-12-20T11:43:40.591Z",
  "networkType": "ethereum",
  "devdoc": {
    "methods": {
      "setMyGoal(string)": {
        "params": {
          "_goal": "string which contains goal"
        }
      }
    },
    "title": "Goal2021"
  },
  "userdoc": {
    "methods": {
      "getMyGoal(address)": {
        "notice": "Return your goal"
      },
      "getMyLuckyNum(address)": {
        "notice": "Return your lucky number"
      },
      "setMyGoal(string)": {
        "notice": "Set your goal one time."
      },
      "setMyLuckyNum(uint256)": {
        "notice": "Set your lucky num"
      }
    }
  }
}